:100000000C945D000C9471030C944A030C948500CD
:100010000C9485000C9485000C9485000C9485004C
:100020000C9485000C9485000C9485000C9485003C
:100030000C9485000C9485000C9485000C9485002C
:100040000C9400030C9485000C94CE020C94A8022E
:100050000C9485000C9485000C9485000C9485000C
:100060000C9485000C94850000000008000201003B
:100070000003040700000000000000000000000072
:10008000250028002B0000000000240027002A0083
:10009000040404040404040402020202020203032E
:1000A0000303030301020408102040800102040836
:1000B0001020010204081020980311241FBECFEF66
:1000C000D8E0DEBFCDBF11E0A0E0B1E0ECE7F3E1A6
:1000D00002C005900D92AC36B107D9F722E0ACE62C
:1000E000B1E001C01D92A035B207E1F710E0CDE507
:1000F000D0E004C02197FE010E94B109CC35D107A0
:10010000C9F70E9414040C94BC090C94000090E000
:10011000FC01EC55FF4F2491FC01E057FF4F849107
:10012000882399F090E0880F991FFC01EA57FF4F50
:10013000A591B491FC01E458FF4F859194918FB73C
:10014000F894EC91E22BEC938FBF089580917501A8
:1001500090917601A0917701B09178010196A11D4F
:10016000B11D8093750190937601A0937701B093B0
:1001700078010895CF92DF92EF92FF920F931F9331
:10018000CF93DF936C017A018B01C0E0D0E0CE15F4
:10019000DF0589F0D8016D918D01D601ED91FC91BB
:1001A0000190F081E02DC6010995892B11F47E01A3
:1001B00002C02196ECCFC701DF91CF911F910F9123
:1001C000FF90EF90DF90CF900895089580E090E049
:1001D0000895FC01538D448D252F30E0842F90E04D
:1001E000821B930B541710F0CF9608950197089532
:1001F000FC01918D828D981761F0828DDF01A80F2F
:10020000B11D5D968C91928D9F5F9F73928F90E050
:1002100008958FEF9FEF0895FC01918D828D9817BF
:1002200031F0828DE80FF11D858D90E008958FEFFC
:100230009FEF0895FC01918D228D892F90E0805CC5
:100240009F4F821B91098F739927089589E791E049
:100250000E941A0121E0892B09F420E0822F0895E1
:10026000FC01848DDF01A80FB11DA35ABF4F2C9153
:10027000848D90E001968F739927848FA689B78922
:100280002C93A089B1898C9180648C93938D848DFB
:10029000981306C00288F389E02D80818F7D8083CA
:1002A0000895EF92FF920F931F93CF93DF93EC018A
:1002B00081E0888F9B8D8C8D981305C0E889F98922
:1002C000808185FD24C0F62E0B8D10E00F5F1F4F3F
:1002D0000F731127E02E8C8DE8120CC00FB607FCAF
:1002E000FACFE889F989808185FFF5CFCE010E9498
:1002F0003001F1CF8B8DFE01E80FF11DE35AFF4F66
:10030000F0820B8FEA89FB898081806207C0EE89C9
:10031000FF896083E889F98980818064808381E036
:1003200090E0DF91CF911F910F91FF90EF90089592
:10033000CF93DF93EC01888D8823C9F0EA89FB898C
:10034000808185FD05C0A889B9898C9186FD0FC083
:100350000FB607FCF5CF808185FFF2CFA889B98958
:100360008C9185FFEDCFCE010E943001E7CFDF9168
:10037000CF91089580E090E0892B29F00E9426011A
:1003800081110C940000089590E0FC01E859FF4FA2
:100390003491FC01EC55FF4F2491FC01E057FF4FD5
:1003A000E491EE2309F43BC0332339F1333091F06B
:1003B00038F43130A9F0323001F584B58F7D12C0A8
:1003C000373091F03830A1F03430B9F480918000AA
:1003D0008F7D03C0809180008F77809380000DC057
:1003E00084B58F7784BD09C08091B0008F7703C03A
:1003F0008091B0008F7D8093B000F0E0EE0FFF1F82
:10040000E458FF4FA591B4918FB7F894EC91611126
:1004100003C020952E2301C02E2B2C938FBF08954F
:100420001F93CF93DF93182FEB010E948700209733
:1004300011F460E004C0CF3FD10539F461E0812FB1
:10044000DF91CF911F910C94C401E12FF0E0E859A6
:10045000FF4FE491E330F9F048F4E130B9F0E230D5
:10046000A1F584B5806284BDC8BD34C0E730E9F031
:10047000E83019F1E43049F5809180008062809382
:100480008000D0938B00C0938A0024C084B580681C
:1004900084BDC7BD1FC080918000806880938000AC
:1004A000D0938900C093880015C08091B000806807
:1004B0008093B000C093B3000DC08091B000806203
:1004C0008093B000C093B40005C0C038D1050CF0D3
:1004D000B5CFAFCFDF91CF911F9108958E3008F047
:1004E0008E508770806480937C0080917A00806455
:1004F00080937A0080917A0086FDFCCF809178000D
:100500002091790090E0922B08950895009769F06A
:10051000FC0101900020E9F73197AF01481B590B0E
:10052000BC0189E791E00C94BA0080E090E0089566
:10053000CF93DF930E948602EC0188E191E00E9454
:1005400086028C0F9D1FDF91CF9108950E94B709FD
:100550001F920F920FB60F9211242F933F934F9338
:100560005F936F937F938F939F93AF93BF93EF931B
:10057000FF9389E791E00E943001FF91EF91BF91D5
:10058000AF919F918F917F916F915F914F913F912B
:100590002F910F900FBE0F901F9018951F920F92E2
:1005A0000FB60F9211242F938F939F93EF93FF9386
:1005B000E0918901F0918A018081E0918F01F091B1
:1005C000900182FD12C09081809192018F5F8F73A4
:1005D00020919301821751F0E0919201F0E0E758E9
:1005E000FE4F958F8093920101C08081FF91EF9122
:1005F0009F918F912F910F900FBE0F901F90189584
:100600001F920F920FB60F9211242F933F938F9347
:100610009F93AF93BF938091160290911702A09180
:100620001802B09119023091700123E0230F2D3789
:1006300020F40196A11DB11D05C026E8230F0296E6
:10064000A11DB11D20937001809316029093170293
:10065000A0931802B093190280916C0190916D01E2
:10066000A0916E01B0916F010196A11DB11D809303
:100670006C0190936D01A0936E01B0936F01BF91D7
:10068000AF919F918F913F912F910F900FBE0F903F
:100690001F9018951F920F920FB60F9211242F934F
:1006A0003F934F935F936F937F938F939F93AF93FA
:1006B000BF93EF93FF93E0910201F091030109953D
:1006C000FF91EF91BF91AF919F918F917F916F912A
:1006D0005F914F913F912F910F900FBE0F901F9000
:1006E00018951F920F920FB60F9211242F933F93DC
:1006F0004F935F936F937F938F939F93AF93BF932A
:10070000EF93FF93E0910001F09101010995FF91B2
:10071000EF91BF91AF919F918F917F916F915F9179
:100720004F913F912F910F900FBE0F901F901895F2
:10073000E9E7F1E01382128288EE93E0A0E0B0E0F6
:1007400084839583A683B7838AE091E09183808335
:1007500085EC90E09587848784EC90E09787868786
:1007600080EC90E0918B808B81EC90E0938B828B7E
:1007700082EC90E0958B848B86EC90E0978B868B57
:10078000118E128E138E148EEAE4F2E089E090E06E
:10079000918380838AE090E0938382832BE030E032
:1007A00035832483EAE1F2E01086118612861386EF
:1007B0001486158616861786108A118A128A138A5D
:1007C000148A158A168A178A10821182128213825D
:1007D0001482158216821782108E118E128E138E3D
:1007E000148E158E168E178E10A211A212A213A2AD
:1007F00014A215A216A217A240E050E060E070E833
:1008000040A751A762A773A72FB7F894409116028B
:100810005091170260911802709119022FBF55A7CD
:1008200044A797A786A70895CF93DF93CDB7DEB7E8
:10083000AD970FB6F894DEBF0FBECDBF789484B5E8
:10084000826084BD84B5816084BD85B5826085BDCC
:1008500085B5816085BD80916E00816080936E005A
:10086000109281008091810082608093810080914C
:1008700081008160809381008091800081608093FD
:1008800080008091B10084608093B1008091B000BD
:1008900081608093B00080917A00846080937A00B8
:1008A00080917A00826080937A0080917A008160E2
:1008B00080937A0080917A00806880937A00109209
:1008C000C100E0918901F0918A0182E08083E0918A
:1008D0008501F09186011082E0918701F0918801F5
:1008E00080E1808310929101E0918D01F0918E0161
:1008F00086E08083E0918B01F0918C0180818061A2
:100900008083E0918B01F0918C01808188608083ED
:10091000E0918B01F0918C01808180688083E0916F
:100920008B01F0918C0180818F7D80838BE191E040
:100930000E94980288E391E00E94980280914A0206
:100940000E94870080914C020E94870080914E0295
:100950000E94870060E080914C020E94C40160E028
:1009600080914E020E94C401109222021092230232
:100970001092240210922502109226021092270251
:10098000109228021092290210922A0210922B0231
:1009900010922C0210922D0210922E0210922F0211
:1009A000109230021092310280E090E0A0E8BFE3A4
:1009B0008093320290933302A0933402B0933502B5
:1009C00010923602109237021092380210923902B9
:1009D00010923A0210923B0210923C0210923D0299
:1009E00080E090E0A8ECB2E480933E0290933F0256
:1009F000A0934002B093410280E090E0A8ECB2ECFA
:100A00008093420290934302A0934402B093450224
:100A10002FB7F8948091160290911702A0911802B6
:100A2000B09119022FBF90934702809346028AE04B
:100A300090E0909349028093480286EA90E0909378
:100A400001018093000180916900836080936900B7
:100A5000E89A8EE6382E81E00E946E026C0180E0FA
:100A60000E946E028C01085C1109083C110514F407
:100A700008EC10E0013223E0120714F000E213E06A
:100A800010930501009304018FB7F894209116028A
:100A90003091170240911802509119022AA73BA7E2
:100AA0004CA75DA78FBF80914602909147027901C4
:100AB000E81AF90A8091480290914902E816F9066D
:100AC0000CF465C1B601DD0C880B990B0E946D0812
:100AD0004B015C01B801110F880B990B0E946D0846
:100AE0009B01AC01C501B4010E9451076AA37BA31D
:100AF0008CA39DA3209132023091330240913402A5
:100B0000509135020E9422092B013C016093220280
:100B10007093230280932402909325022091360241
:100B20003091370240913802509139026AA17BA17D
:100B30008CA19DA10E9422094B015C01B701FF0C11
:100B4000880B990B0E946D089B01AC01C501B40193
:100B50000E94220920E030E04AE754E40E94C307E3
:100B600020912602309127024091280250912902BB
:100B70000E9452076B017C0160932602709327024A
:100B8000809328029093290220912E0230912F0207
:100B900040913002509131026AA17BA18CA19DA1AC
:100BA0000E94510720913A0230913B0240913C0251
:100BB00050913D020E9422094B015C0160932A0280
:100BC00070932B0280932C0290932D02A701960123
:100BD000C301B2010E945207A50194010E9452076D
:100BE0004B015C0160931A0270931B0280931C02FC
:100BF00090931D0280913E0290913F02A09140028D
:100C0000B09141028EA39FA3A8A7B9A79C01AD01F3
:100C1000C501B4010E941D09409042025090430258
:100C2000609044027090450218166CF42EA13FA10A
:100C300048A559A520931E0230931F02409320021D
:100C40005093210219C0A3019201C501B4010E9471
:100C5000BE0787FF09C040921E0250921F02609299
:100C600020027092210208C080921E0290921F0200
:100C7000A0922002B0922102A3019201C701B60105
:100C80000E94BE0787FF09C04092260250922702A9
:100C9000609228027092290216C02EA13FA148A599
:100CA00059A5C701B6010E941D09181664F48EA14A
:100CB0009FA1A8A5B9A58093260290932702A0938F
:100CC0002802B0932902AAA5BBA5B0934702A0931E
:100CD00046022AA13BA14CA15DA120932E02309394
:100CE0002F02409330025093310260911E027091A6
:100CF0001F0280912002909121020E9435086B0111
:100D00007C0100271127061B170BC80187968F341B
:100D1000910570F460E080914C020E94C40160E093
:100D200080914E020E94C40161E080914A0210C08D
:100D300061E080914A020E94C401101611065CF421
:100D4000B80180914C020E94100260E080914E0236
:100D50000E94C4010AC060E080914C020E94C4015C
:100D6000B60180914E020E941002F89480917501A4
:100D700090917601A0917701B09178017894809359
:100D8000710190937201A0937301B093740189E78C
:100D900091E00E941A01181619060CF07FC089E72D
:100DA00091E00E94F800182F87E491E00E948602EB
:100DB000E0917901F0917A010190F081E02D612FAD
:100DC00089E791E0099588E191E00E948602123559
:100DD00039F48DE491E00E9486020C9400005EC01C
:100DE00086E591E00E949802812F110F990BC09720
:100DF000389EB001399E700D1124709305016093E7
:100E000004016B01072E000CEE08FF0877FF28C0D5
:100E1000E0917901F0917A010190F081E02D6DE28D
:100E200089E791E0099522273327A9012C193D096B
:100E30004E095F0919A28E010F5D1F4FCA01B9014A
:100E40002AE030E040E050E00E948F09605DD80168
:100E50006E938D01211531054105510579F717C0B4
:100E6000A701960119A28E010F5D1F4FCA01B9019A
:100E70002AE030E040E050E00E948F09605DF80118
:100E800062938F01211531054105510579F7C8019C
:100E90000E94860288E191E00E9486020E94BA01C7
:100EA000DACD5058BB27AA270E9469070C94E308A3
:100EB0000E94D50838F00E94DC0820F039F49F3FEA
:100EC00019F426F40C94D2080EF4E095E7FB0C9488
:100ED000CC08E92F0E94F40858F3BA176207730789
:100EE0008407950720F079F4A6F50C9416090EF402
:100EF000E0950B2EBA2FA02D0B01B90190010C012A
:100F0000CA01A0011124FF27591B99F0593F50F441
:100F1000503E68F11A16F040A22F232F342F442799
:100F2000585FF3CF469537952795A795F040539591
:100F3000C9F77EF41F16BA0B620B730B840BBAF061
:100F40009150A1F0FF0FBB1F661F771F881FC2F7CC
:100F50000EC0BA0F621F731F841F48F487957795E0
:100F60006795B795F7959E3F08F0B0CF9395880F9A
:100F700008F09927EE0F9795879508950E94A80885
:100F800008F481E008950E94D7070C94E3080E94BA
:100F9000DC0858F00E94D50840F029F45F3F29F0A2
:100FA0000C94CC0851110C9417090C94D2080E948F
:100FB000F40868F39923B1F3552391F3951B550B6E
:100FC000BB27AA2762177307840738F09F5F5F4F1C
:100FD000220F331F441FAA1FA9F335D00E2E3AF05B
:100FE000E0E832D091505040E695001CCAF72BD073
:100FF000FE2F29D0660F771F881FBB1F26173707C4
:101000004807AB07B0E809F0BB0B802DBF01FF27F5
:1010100093585F4F3AF09E3F510578F00C94CC08FE
:101020000C9417095F3FE4F3983ED4F386957795C7
:101030006795B795F7959F5FC9F7880F911D9695AE
:10104000879597F90895E1E0660F771F881FBB1F0A
:10105000621773078407BA0720F0621B730B840BB7
:10106000BA0BEE1F88F7E09508950E943C0868943B
:10107000B1110C94170908950E94FC0888F09F573D
:1010800098F0B92F9927B751B0F0E1F0660F771FAC
:10109000881F991F1AF0BA95C9F714C0B13091F0A2
:1010A0000E941609B1E008950C941609672F782F55
:1010B0008827B85F39F0B93FCCF386957795679567
:1010C000B395D9F73EF490958095709561957F4FD3
:1010D0008F4F9F4F0895E89409C097FB3EF4909579
:1010E0008095709561957F4F8F4F9F4F9923A9F001
:1010F000F92F96E9BB279395F69587957795679590
:10110000B795F111F8CFFAF4BB0F11F460FF1BC0D3
:101110006F5F7F4F8F4F9F4F16C0882311F096E966
:1011200011C0772321F09EE8872F762F05C0662314
:1011300071F096E8862F70E060E02AF09A95660FCD
:10114000771F881FDAF7880F9695879597F9089586
:10115000990F0008550FAA0BE0E8FEEF16161706C8
:10116000E807F907C0F012161306E407F50798F030
:10117000621B730B840B950B39F40A2661F0232B49
:10118000242B252B21F408950A2609F4A140A695C5
:101190008FEF811D811D089597F99F6780E870E0AA
:1011A00060E008959FEF80EC089500240A941616DD
:1011B000170618060906089500240A941216130645
:1011C000140605060895092E0394000C11F48823D3
:1011D00052F0BB0F40F4BF2B11F460FF04C06F5FEF
:1011E0007F4F8F4F9F4F089557FD9058440F551FC5
:1011F00059F05F3F71F04795880F97FB991F61F099
:101200009F3F79F087950895121613061406551F0F
:10121000F2CF4695F1DF08C0161617061806991F7B
:10122000F1CF86957105610508940895E894BB2770
:1012300066277727CB0197F908950E94A80808F43C
:101240008FEF08950E9435090C94E3080E94D50899
:1012500038F00E94DC0820F0952311F00C94CC08A3
:101260000C94D20811240C9417090E94F40870F30E
:10127000959FC1F3950F50E0551F629FF001729F3B
:10128000BB27F00DB11D639FAA27F00DB11DAA1F4A
:10129000649F6627B00DA11D661F829F2227B00D97
:1012A000A11D621F739FB00DA11D621F839FA00D22
:1012B000611D221F749F3327A00D611D231F849F72
:1012C000600D211D822F762F6A2F11249F575040C9
:1012D0009AF0F1F088234AF0EE0FFF1FBB1F661F44
:1012E000771F881F91505040A9F79E3F510580F00D
:1012F0000C94CC080C9417095F3FE4F3983ED4F3A8
:10130000869577956795B795F795E7959F5FC1F7B0
:10131000FE2B880F911D9695879597F90895A1E268
:101320001A2EAA1BBB1BFD010DC0AA1FBB1FEE1F5F
:10133000FF1FA217B307E407F50720F0A21BB30BAA
:10134000E40BF50B661F771F881F991F1A9469F726
:1013500060957095809590959B01AC01BD01CF0182
:101360000895EE0FFF1F0590F491E02D099481E0A0
:1013700090E0F8940C94BC09F894FFCF85028502A4
:10138000F401000000005101BA00E90098011A01BF
:10139000F8000C010D0A004A7573742061667465CB
:1013A000722053657269616C2E626567696E2829C7
:1013B0002E2E2E005374617274696E672075702E24
:1013C0002E2E0052656164200052657365742E2EC6
:1013D0002E0053657474696E672072656665726568
:1013E0006E63652E2E2E0000FFFFFFFFFFFFFFFF45
:1013F000FFFFFFFFFFFFFFFFFFFFFFFFFFFFFFFFFD
:10140000F491E02D099481E090E0F8940C94080A9E
:10141000F894FFCFAA02AA02F401000000005101D3
:10142000BA00E90098011A01F8000C010D0A004AFF
:101430007573742061667465722053657269616C9E
:101440002E626567696E28292E2E2E0053746172F4
:1014500074696E672075702E2E2E005265616420AF
:101460000052657365742E2E2E0053657474696E78
:1014700067207265666572656E63652E2E2E0000AC
:10148000C1F7FE2B880F911D9695879597F90895C2
:10149000A1E21A2EAA1BBB1BFD010DC0AA1FBB1F78
:1014A000EE1FFF1FA217B307E407F50720F0A21BEA
:1014B000B30BE40BF50B661F771F881F991F1A9457
:1014C00069F760957095809590959B01AC01BD0181
:1014D000CF010895EE0FFF1F0590F491E02D0994C0
:1014E00081E090E0F8940C94750AF894FFCF4201E3
:1014F0004201F40100000000DA01430172012102FF
:10150000A301810195010D0A005374617274696E23
:10151000672E2E2E005374617274696E6720412EFF
:101520002E2E005374617274696E6720422E2E2E27
:10153000005374617274696E6720432E2E2E00531F
:1015400074617274696E67322E2E2E00537461724C
:1015500074696E67332E2E2E00526561642000522E
:101560006573657474696E672E2E2E0053657474EE
:10157000696E67207265666572656E63652E2E2ED4
:1015800000207764745F7265736574282900FFFF1B
:10159000FFFFFFFFFFFFFFFFFFFFFFFFFFFFFFFF5B
:1015A000FFFFFFFFFFFFFFFFFFFFFFFFFFFFFFFF4B
:1015B000FFFFFFFFFFFFFFFFFFFFFFFFFFFFFFFF3B
:1015C000FFFFFFFFFFFFFFFFFFFFFFFFFFFFFFFF2B
:1015D000FFFFFFFFFFFFFFFFFFFFFFFFFFFFFFFF1B
:1015E000FFFFFFFFFFFFFFFFFFFFFFFFFFFFFFFF0B
:1015F000FFFFFFFFFFFFFFFFFFFFFFFFFFFFFFFFFB
:1016000019A2EE89FF89408181E090E09C010C8C59
:1016100002C0220F331F0A94E2F7422B4083EE8967
:10162000FF8940819C010D8C02C0220F331F0A9458
:10163000E2F7422B4083EE89FF8940819C010E8CAA
:1016400002C0220F331F0A94E2F7422B4083EE8937
:10165000FF8920810F8C02C0880F991F0A94E2F73E
:10166000809582238083DF91CF91FF90EF90DF9070
:10167000CF9008951092BC011092BB0188EE93E0C8
:10168000A0E0B0E08093BD019093BE01A093BF01A4
:10169000B093C00184E891E09093BA018093B901BE
:1016A0008FE192E09093C6018093C5018BED91E0AC
:1016B0009093C8018093C70185EC90E09093CA0194
:1016C0008093C90184EC90E09093CC018093CB018E
:1016D00080EC90E09093CE018093CD0181EC90E07E
:1016E0009093D0018093CF0182EC90E09093D2014F
:1016F0008093D10186EC90E09093D4018093D30144
:1017000084E08093D50183E08093D60187E08093C5
:10171000D70185E08093D80181E08093D9010895B5
:10172000CF92DF92EF92FF920F931F93CF93DF93AD
:101730006C017A01EB01E60EF71E00E010E0CE1519
:10174000DF0561F06991D601ED91FC910190F08186
:10175000E02DC6010995080F191FF1CFC801DF91CF
:10176000CF911F910F91FF90EF90DF90CF90089550
:101770006115710581F0DB010D900020E9F7AD01E5
:1017800041505109461B570BDC01ED91FC91028041
:10179000F381E02D099480E090E008950C94B80B5B
:1017A000DC01ED91FC910190F081E02D09940F9303
:1017B0001F93CF93DF93EC016DE00E94D00B8C015F
:1017C0006AE0CE010E94D00B800F911FDF91CF9174
:1017D0001F910F9108950F931F93CF93DF93EC0107
:1017E0000E94B80B8C01CE010E94D70B800F911F75
:1017F000DF91CF911F910F9108958F929F92AF9299
:10180000BF92CF92DF92EF92FF920F931F93CF93ED
:10181000DF93CDB7DEB7A1970FB6F894DEBF0FBE4A
:10182000CDBF7C01C42EE52FCB01D22E19A221E021
:101830002D1510F02AE0D22E8E010F5D1F4F8D2C3A
:10184000912CA12CB12C6C2D7E2FA50194010E940E
:10185000E2118C2DD29E80191124015011098A3079
:1018600014F4805D01C0895CF80180832115310585
:101870004105510521F0C22EE32FCA01E4CFB80182
:10188000C7010E94B80BA1960FB6F894DEBF0FBE39
:10189000CDBFDF91CF911F910F91FF90EF90DF901F
:1018A000CF90BF90AF909F908F900895CF92DF928E
:1018B000EF92FF920F931F93CF93DF93EC016A0196
:1018C0007B012115310579F4E881F9810190F081DE
:1018D000E02D642FDF91CF911F910F91FF90EF903A
:1018E000DF90CF9009942A303105E9F477FF1AC0D0
:1018F0006DE20E94D00B8C0144275527BA014C1988
:101900005D096E097F092AE0CE010E94FD0B800F60
:10191000911FDF91CF911F910F91FF90EF90DF907A
:10192000CF9008952AE0B701A601CE01DF91CF91B3
:101930001F910F91FF90EF90DF90CF900C94FD0BD3
:101940002115310541F4DC01ED91FC910190F0810C
:10195000E02D642F09940C94FD0B9A01462F50E062
:1019600060E070E00C94A00C4F925F926F927F92B7
:101970008F929F92AF92BF92CF92DF92EF92FF929F
:101980000F931F93CF93DF93EC016A017B01B22E7B
:101990009A01AB01C701B6010E94DE11882319F03C
:1019A00060E971E027C026013701E89477F82FEF4E
:1019B0003FEF4FE75FE7C301B2010E94DE118111E3
:1019C0000DC02FEF3FEF4FE75FE7C301B2010E9469
:1019D000281018161CF464E971E00CC02FEF3FEFDB
:1019E0004FE75FE4C701B6010E9477111816ACF407
:1019F00068E971E0CE01DF91CF911F910F91FF90C7
:101A0000EF90DF90CF90BF90AF909F908F907F909E
:101A10006F905F904F900C94B80B2FEF3FEF4FE714
:101A20005FECC701B6010E94281087FDE1CF20E0DE
:101A300030E0A901C701B6010E94281087FF0AC043
:101A40006DE2CE010E94D00B8C01F7FAF094F7F80A
:101A5000F09402C000E010E0A12C60E070E080E0B3
:101A60009FE3AB1441F020E030E040E251E40E94FB
:101A70002C10A394F6CF9B01AC01C701B6010E94C4
:101A8000C40F6B017C010E9499102B013C010E9444
:101A9000C5109B01AC01C701B6010E94C30F6B01C9
:101AA0007C012AE0B301A201CE010E94FD0B080FC8
:101AB000191FBB2039F06CE971E0CE010E94B80B10
:101AC000080F191F7B2C772041F120E030E040E225
:101AD00051E4C701B6010E947B116B017C010E9499
:101AE00094104B01AA2497FCA094BA2C2AE030E071
:101AF000B501A401CE010E94560C080F191FC501A3
:101B0000B4010E94C7109B01AC01C701B6010E943D
:101B1000C30F6B017C017A94D6CFC801DF91CF91BE
:101B20001F910F91FF90EF90DF90CF90BF90AF90FB
:101B30009F908F907F906F905F904F9008950C943E
:101B4000B40C0F931F93CF93DF93EC010E94B40C5E
:101B50008C01CE010E94D70B800F911FDF91CF9196
:101B60001F910F9108956F927F928F929F92AF92E3
:101B7000BF92CF92DF92EF92FF920F931F93CF937A
:101B8000DF93EC01CB01209781F4DF91CF911F917E
:101B90000F91FF90EF90DF90CF90BF90AF909F900C
:101BA0008F907F906F900C949C0EFE01E60FF71FB4
:101BB0009E0122503109E217F30708F4ACC0D901A5
:101BC0000D911C91119706171707B8F005301105F4
:101BD00008F49FC0A801445051094617570708F45C
:101BE00098C002501109061B170B019311936D93B6
:101BF0007C93CF010E94340F8CC05B01A01AB10A04
:101C00004E01800E911EA0916502B0916602612C7A
:101C1000712C60E070E0109709F449C0A815B9056F
:101C2000C9F5ED90FC901197670142E0C40ED11CFC
:101C3000CA14DB0478F147018A189B08640142E06A
:101C4000C40ED11C1296BC9012971396AC91B5E0BD
:101C5000CB16D10440F0B282A38391828082D90155
:101C60008D939C9309C00E5F1F4F0E0D1F1DF90130
:101C700011830083EB2DFA2F6115710531F0DB0123
:101C80001396FC93EE93129744C0F0936602E09390
:101C900065023FC06D917C9111976616770608F436
:101CA0003B01BD0112960D90BC91A02DB4CF609167
:101CB00063027091640268157905E9F46816790683
:101CC000D0F440910001509101014115510541F4BA
:101CD0004DB75EB76091040170910501461B570B2B
:101CE000E417F507C0F4F0936402E0936302F9018E
:101CF000918380830EC00E949C0E7C01009759F056
:101D0000A801BE010E943112CE010E94340FC7010A
:101D100004C0CE0102C080E090E0DF91CF911F911E
:101D20000F91FF90EF90DF90CF90BF90AF909F907A
:101D30008F907F906F900895CF93DF9382309105BD
:101D400010F482E090E0E0916502F091660220E0FC
:101D500030E0A0E0B0E0309739F140815181481780
:101D60005907B8F04817590771F482819381109789
:101D700029F013969C938E9312972CC09093660231
:101D80008093650227C02115310531F042175307B2
:101D900018F0A901DB0101C0EF019A01BD01DF01CB
:101DA0000280F381E02DD7CF21153105F9F0281BF2
:101DB000390B2430310580F48A819B8161157105CE
:101DC00021F0FB019383828304C090936602809389
:101DD0006502FE01329644C0FE01E20FF31F8193BB
:101DE000919322503109398328833AC020916302AC
:101DF00030916402232B41F42091020130910301C0
:101E0000309364022093630220910001309101011C
:101E10002115310541F42DB73EB740910401509191
:101E20000501241B350BE0916302F0916402E21777
:101E3000F307A0F42E1B3F0B2817390778F0AC01ED
:101E40004E5F5F4F2417350748F04E0F5F1F5093CA
:101E50006402409363028193919302C0E0E0F0E05A
:101E6000CF01DF91CF910895CF93DF93009709F4CD
:101E700087C0FC01329713821282C0916502D09113
:101E80006602209781F420813181280F391F8091CB
:101E90006302909164028217930779F5F0936402CC
:101EA000E09363026DC0DE0120E030E0AE17BF07B3
:101EB00050F412964D915C9113979D014115510577
:101EC00009F1DA01F3CFB383A28340815181840FFA
:101ED000951F8A179B0771F48D919C911197840F20
:101EE000951F02969183808312968D919C911397F2
:101EF000938382832115310529F4F0936602E093E0
:101F000065023EC0D9011396FC93EE9312974D9152
:101F10005D91A40FB51FEA17FB0779F480819181C9
:101F2000840F951F0296D90111969C938E938281FE
:101F3000938113969C938E931297E0E0F0E08A8150
:101F40009B81009719F0FE01EC01F9CFCE010296BA
:101F500028813981820F931F20916302309164029E
:101F60002817390769F4309729F410926602109205
:101F7000650202C013821282D0936402C09363028E
:101F8000DF91CF9108955058BB27AA270ED075C175
:101F900066D130F06BD120F031F49F3F11F41EF484
:101FA0005BC10EF4E095E7FB51C1E92F77D180F3D7
:101FB000BA17620773078407950718F071F49EF546
:101FC0008FC10EF4E0950B2EBA2FA02D0B01B90195
:101FD00090010C01CA01A0011124FF27591B99F09F
:101FE000593F50F4503E68F11A16F040A22F232FAB
:101FF000342F4427585FF3CF469537952795A795FB
:10200000F0405395C9F77EF41F16BA0B620B730BA1
:10201000840BBAF09150A1F0FF0FBB1F661F771F12
:10202000881FC2F70EC0BA0F621F731F841F48F4C7
:10203000879577956795B795F7959E3F08F0B3CF4D
:102040009395880F08F09927EE0F97958795089537
:10205000D9D008F481E008950CD00FC107D140F029
:10206000FED030F021F45F3F19F0F0C0511139C1BA
:10207000F3C014D198F39923C9F35523B1F3951BF9
:10208000550BBB27AA2762177307840738F09F5F99
:102090005F4F220F331F441FAA1FA9F333D00E2E08
:1020A0003AF0E0E830D091505040E695001CCAF775
:1020B00029D0FE2F27D0660F771F881FBB1F26173A
:1020C00037074807AB07B0E809F0BB0B802DBF010D
:1020D000FF2793585F4F2AF09E3F510568F0B6C026
:1020E00000C15F3FECF3983EDCF3869577956795EA
:1020F000B795F7959F5FC9F7880F911D96958795BE
:1021000097F90895E1E0660F771F881FBB1F6217DC
:1021100073078407BA0720F0621B730B840BBA0B9A
:10212000EE1F88F7E095089504D06894B111D9C0E6
:102130000895BCD088F09F5790F0B92F9927B751D8
:10214000A0F0D1F0660F771F881F991F1AF0BA957B
:10215000C9F712C0B13081F0C3D0B1E00895C0C05A
:10216000672F782F8827B85F39F0B93FCCF3869571
:1021700077956795B395D9F73EF4909580957095CE
:1021800061957F4F8F4F9F4F0895E89409C097FB4B
:102190003EF490958095709561957F4F8F4F9F4F3E
:1021A0009923A9F0F92F96E9BB279395F695879582
:1021B00077956795B795F111F8CFFAF4BB0F11F445
:1021C00060FF1BC06F5F7F4F8F4F9F4F16C08823EC
:1021D00011F096E911C0772321F09EE8872F762F22
:1021E00005C0662371F096E8862F70E060E02AF063
:1021F0009A95660F771F881FDAF7880F969587954F
:1022000097F90895990F0008550FAA0BE0E8FEEF23
:1022100016161706E807F907C0F012161306E407AA
:10222000F50798F0621B730B840B950B39F40A26A3
:1022300061F0232B242B252B21F408950A2609F481
:10224000A140A6958FEF811D811D089597F99F6785
:1022500080E870E060E008959FEF80EC089500242E
:102260000A941616170618060906089500240A94FB
:1022700012161306140605060895092E0394000C81
:1022800011F4882352F0BB0F40F4BF2B11F460FF10
:1022900004C06F5F7F4F8F4F9F4F089557FD905839
:1022A000440F551F59F05F3F71F04795880F97FB1A
:1022B000991F61F09F3F79F08795089512161306D4
:1022C0001406551FF2CF4695F1DF08C01616170603
:1022D0001806991FF1CF8695710561050894089538
:1022E000E894BB2766277727CB0197F908958ADF03
:1022F00008F48FEF08950BD0C0CFB1DF28F0B6DF20
:1023000018F0952309F0A2CFA7CF1124EACFC6DF9A
:10231000A0F3959FD1F3950F50E0551F629FF001F8
:10232000729FBB27F00DB11D639FAA27F00DB11D51
:10233000AA1F649F6627B00DA11D661F829F2227DA
:10234000B00DA11D621F739FB00DA11D621F839F61
:10235000A00D611D221F749F3327A00D611D231F37
:10236000849F600D211D822F762F6A2F11249F5785
:1023700050408AF0E1F088234AF0EE0FFF1FBB1FA8
:10238000661F771F881F91505040A9F79E3F510547
:1023900070F05CCFA6CF5F3FECF3983EDCF3869500
:1023A00077956795B795F795E7959F5FC1F7FE2BF2
:1023B000880F911D9695879597F9089523DF880BCF
:1023C000990B0895A1E21A2EAA1BBB1BFD010DC09B
:1023D000AA1FBB1FEE1FFF1FA217B307E407F507D5
:1023E00020F0A21BB30BE40BF50B661F771F881FB1
:1023F000991F1A9469F760957095809590959B0147
:10240000AC01BD01CF010895052E97FB1EF4009489
:102410000E941B1257FD07D00E94E21107FC03D057
:102420004EF40C941B1250954095309521953F4FDA
:102430004F4F5F4F089590958095709561957F4FB0
:102440008F4F9F4F0895EE0FFF1F0590F491E02DE1
:10245000099491112EC0803219F089508550D0F71F
:102460000895FB01DC0102C001900D9241505040E3
:10247000D8F70895FB01DC018D91019080190110BE
:10248000D9F3990B0895FB01DC0101900D92002016
:10249000E1F70895FB01DC014150504048F0019004
:1024A0000D920020C9F701C01D9241505040E0F745
:1024B0000895992788270895F894FFCF00006702B0
:1024C00080004572726F722072656164696E672068
:1024D00074656D7065726174757265213B0045723B
:1024E000726F722072656164696E672068756D69CC
:1024F0006469747921007265616400000000008CD9
:102500000093009200A809A80944485431310044BE
:1025100048543231004448543232004448543F0059
:102520000000000082048F04920096047C050000E5
:1025300000007C0488049200D104F605000000002D
:10254000FD09900BA909D209B909F2096E616E0063
:10255000696E66006F7666002E00FFFFFFFFFFFFCB
:10256000FFFFFFFFFFFFFFFFFFFFFFFFFFFFFFFF7B
:10257000FFFFFFFFFFFFFFFFFFFFFFFFFFFFFFFF6B
:10258000672074656D7065726174757265213B00BA
:102590004572726F722072656164696E672068753A
:1025A0006D69646974792100596F752077726F7451
:1025B0006500616E6420746861742773206974001B
:1025C0007265616400000000008C0093009200CCF2
:1025D00009CC094448543131004448543231004454
:1025E00048543232004448543F0000000000950433
:1025F000A2049200A9048F05000000008F049B0430
:102600009200E404090600000000210AB40BCD0981
:10261000F609DD09160A6E616E00696E66006F7656
:1026200066002E00FFFFFFFFFFFFFFFFFFFFFFFF22
:10263000FFFFFFFFFFFFFFFFFFFFFFFFFFFFFFFFAA
:10264000FFFFFFFFFFFFFFFFFFFFFFFFFFFFFFFF9A
:10265000FFFFFFFFFFFFFFFFFFFFFFFFFFFFFFFF8A
:10266000FFFFFFFFFFFFFFFFFFFFFFFFFFFFFFFF7A
:107800000C94343C0C94513C0C94513C0C94513CE1
:107810000C94513C0C94513C0C94513C0C94513CB4
:107820000C94513C0C94513C0C94513C0C94513CA4
:107830000C94513C0C94513C0C94513C0C94513C94
:107840000C94513C0C94513C0C94513C0C94513C84
:107850000C94513C0C94513C0C94513C0C94513C74
:107860000C94513C0C94513C11241FBECFEFD8E036
:10787000DEBFCDBF11E0A0E0B1E0ECE9FFE702C060
:1078800005900D92A230B107D9F712E0A2E0B1E065
:1078900001C01D92AD30B107E1F70E942D3D0C945F
:1078A000CC3F0C94003C982F959595959595959582
:1078B000905D8F708A307CF0282F295A8091C0000B
:1078C00085FFFCCF9093C6008091C00085FFFCCF60
:1078D0002093C6000895282F205DF0CF982F809127
:1078E000C00085FFFCCF9093C6000895EF92FF92F1
:1078F0000F931F93EE24FF2487018091C00087FD22
:1079000017C00894E11CF11C011D111D81E4E8164B
:1079100082E4F8068FE0080780E0180770F3E09132
:107920000401F091050109958091C00087FFE9CF1E
:107930008091C6001F910F91FF90EF9008950E94D3
:10794000763C982F8091C00085FFFCCF9093C600B5
:1079500091362CF490330CF09053892F089597555D
:10796000892F08951F930E949F3C182F0E949F3CCF
:107970001295107F810F1F9108951F93182F882350
:1079800021F00E94763C1150E1F71F9108951F935A
:10799000182F0E94763C803249F0809103018F5F5E
:1079A000809303018530C1F01F9108958091C0003C
:1079B00085FFFCCF84E18093C6008091C00085FFE5
:1079C000FCCF1093C6008091C00085FFFCCF80E102
:1079D0008093C6001F910895E0910401F091050184
:1079E00009951F9108950E94763C803241F0809164
:1079F00003018F5F80930301853081F008958091AA
:107A0000C00085FFFCCF84E18093C6008091C00058
:107A100085FFFCCF80E18093C6000895E0910401CA
:107A2000F09105010995089540E951E08823A1F0FE
:107A30002D9A28EE33E0FA013197F1F721503040CA
:107A4000D1F72D9828EE33E0FA013197F1F7215064
:107A50003040D1F7815061F708953F924F925F9285
:107A60006F927F928F929F92AF92BF92CF92DF924E
:107A7000EF92FF920F931F93CF93DF93000080E16B
:107A80008093C4001092C50088E18093C10086E015
:107A90008093C2005098589A259A81E00E94143D24
:107AA00024E1F22E9EE1E92E85E9D82E0FE0C02ECA
:107AB00010E1B12EAA24A394B1E49B2EA6E58A2E50
:107AC000F2E57F2EE0E26E2E79E4572E63E5462E36
:107AD00050E5352E0E94763C8033B1F18133B9F107
:107AE000803409F46FC0813409F476C0823409F41B
:107AF00085C0853409F488C0803531F1823521F1A3
:107B0000813511F1853509F485C0863509F48DC0BC
:107B1000843609F496C0843709F403C1853709F423
:107B200072C1863709F466C0809103018F5F80932C
:107B30000301853079F6E0910401F0910501099582
:107B40000E94763C803351F60E94F33CC3CF0E94E2
:107B5000763C803249F78091C00085FFFCCFF092DF
:107B6000C6008091C00085FFFCCF9092C600809136
:107B7000C00085FFFCCF8092C6008091C00085FFC9
:107B8000FCCF7092C6008091C00085FFFCCF609250
:107B9000C6008091C00085FFFCCF5092C600809146
:107BA000C00085FFFCCF4092C6008091C00085FFD9
:107BB000FCCF3092C6008091C00085FFFCCFB09210
:107BC000C60088CF0E94763C863808F4BDCF0E945C
:107BD000763C0E94F33C7ECF0E94763C803809F4CC
:107BE0009CC0813809F40BC1823809F43CC1883942
:107BF00009F48FC080E00E94C73C6CCF84E10E94F2
:107C0000BD3C0E94F33C66CF85E00E94BD3C0E94D3
:107C1000F33C60CF0E94763C809306010E94763C44
:107C2000809307010E94F33C55CF0E94763C80333D
:107C300009F41DC183E00E94BD3C80E00E94C73C66
:107C400049CF0E94763C809309020E94763C809343
:107C5000080280910C028E7F80930C020E94763C79
:107C6000853409F415C18091080290910902892B8D
:107C700089F000E010E00E94763CF801E85FFE4FDA
:107C800080830F5F1F4F80910802909109020817AF
:107C9000190788F30E94763C803209F045CF809125
:107CA0000C0280FF01C16091060170910701660F0F
:107CB000771F7093070160930601A0910802B091AD
:107CC00009021097C9F0E8E0F1E09B01AD014E0F09
:107CD0005F1FF999FECF32BD21BD819180BDFA9A17
:107CE000F99A2F5F3F4FE417F50799F76A0F7B1F4B
:107CF00070930701609306018091C00085FFFCCF5F
:107D0000F092C6008091C00085FFFCCFB092C60003
:107D1000E1CE83E00E94C73CDDCE82E00E94C73CFA
:107D2000D9CE0E94763C809309020E94763C8093D3
:107D300008028091060190910701880F991F909386
:107D40000701809306010E94763C853409F4A6C0A1
:107D500080910C028E7F80930C020E94763C8032D0
:107D600009F0B8CE8091C00085FFFCCFF092C6002C
:107D7000609108027091090261157105B9F140E046
:107D800050E080910C02A82FA170B82FB27011C0E2
:107D9000BB2309F45CC0E0910601F0910701319624
:107DA000F0930701E09306014F5F5F4F46175707B7
:107DB000E8F4AA2369F3F999FECF209106013091E6
:107DC000070132BD21BDF89A90B58091C00085FFB2
:107DD000FCCF9093C6002F5F3F4F30930701209355
:107DE00006014F5F5F4F4617570718F38091C00099
:107DF00085FDE5CE8091C00085FFF8CFE0CE81E023
:107E00000E94C73C67CE0E94763C803209F08CCE3F
:107E10008091C00085FFFCCFF092C6008091C00029
:107E200085FFFCCFE092C6008091C00085FFFCCFAB
:107E3000D092C6008091C00085FFFCCFC092C600E2
:107E40008091C00085FFFCCFB092C60043CEE09188
:107E50000601F091070194918091C00085FFFCCF4D
:107E60009093C6009CCF80E10E94C73C33CE0E9415
:107E7000763C0E94763C182F0E94763C112309F430
:107E800083C0113009F484C08FE00E94C73C22CE29
:107E900080910C02816080930C02E5CE80910C02EF
:107EA000816080930C0259CF809107018823880F4D
:107EB000880B8A2180930B02809106019091070123
:107EC000880F991F90930701809306018091080203
:107ED00080FF09C080910802909109020196909359
:107EE000090280930802F894F999FECF1127E091D6
:107EF0000601F0910701C8E0D1E08091080290915D
:107F00000902103091F40091570001700130D9F34B
:107F100003E000935700E89500915700017001308D
:107F2000D9F301E100935700E89509901990009169
:107F3000570001700130D9F301E000935700E89534
:107F40001395103498F011270091570001700130FB
:107F5000D9F305E000935700E895009157000170B0
:107F60000130D9F301E100935700E895329602976A
:107F700009F0C7CF103011F00296E5CF112480919F
:107F8000C00085FFB9CEBCCE8EE10E94C73CA2CD19
:107F900085E90E94C73C9ECDF894FFCF8000FFFF8B
:107FA000FFFFFFFFFFFFFFFFFFFFFFFFFFFFFFFFE1
:107FB000FFFFFFFFFFFFFFFFFFFFFFFFFFFFFFFFD1
:107FC000FFFFFFFFFFFFFFFFFFFFFFFFFFFFFFFFC1
:107FD000FFFFFFFFFFFFFFFFFFFFFFFFFFFFFFFFB1
:107FE000FFFFFFFFFFFFFFFFFFFFFFFFFFFFFFFFA1
:107FF000FFFFFFFFFFFFFFFFFFFFFFFFFFFFFFFF91
:00000001FF
